:020000040800F2
:10000000280E002029430008ED210008EF210008F8
:10001000F3210008F7210008FB2100080000000080
:10002000000000000000000000000000FF210008A8
:100030000122000800000000032200080522000839
:10004000434300084343000843430008294D000888
:100050004343000843430008434300084343000868
:100060004343000843430008434300084343000858
:100070004343000843430008434300084343000848
:100080004343000843430008434300084343000838
:100090004343000843430008434300084343000828
:1000A0004343000843430008434300084343000818
:1000B000434300088F5000088F5300084343000853
:1000C00043430008434300084343000843430008F8
:1000D00043430008C14500087F510008CD55000882
:1000E00043430008434300084343000843430008D8
:1000F00043430008434300084343000843430008C8
:1001000043430008434300084343000843430008B7
:100110009355000843430008434300088B570008E9
:100120004343000843430008434300084343000897
:1001300000F002F800F090F80AA090E8000C824469
:100140008344AAF10107DA4501D100F085F8AFF246
:10015000090EBAE80F0013F0010F18BFFB1A43F0A5
:10016000010318477C7C00009C7C0000103A24BFEF
:1001700078C878C1FAD8520724BF30C830C144BF0C
:1001800004680C607047000000230024002500264E
:10019000103A28BF78C1FBD8520728BF30C148BFEA
:1001A0000B6070476E2905F08B87702906F0F3808D
:1001B000662907F06F80652907F06C80672907F0D2
:1001C00069806129AFF3008003681B0A28BF41F0F2
:1001D0008001692905F0A484642905F0A1847529AA
:1001E00005F09E846F2906F08180782906F0BF8093
:1001F000E92906F01D80E42906F01A80F52906F0A9
:100200001780EF2906F07E80F82906F0BE8003688B
:10021000DB0928BF41F08001632905F08C87732931
:1002200005F09187E32906F01B83F32906F020836C
:10023000002070471FB506F071FB0400002000216C
:1002400007F012F8401C60600020002106F0F6FF65
:10025000E0601FBD10B510BD06F032FB1146FFF780
:10026000E9FF00F0E4F806F009FC03B4FFF7F2FF41
:1002700003BC04F0E9F800000020F9490870F948CF
:100280000078012832D1F8480078422801D10120B5
:1002900000E00020F44949784E2901D1012100E015
:1002A00000210840F8B1F048C0783038EC490870B7
:1002B000ED480079302801DB012000E00020EA4908
:1002C0000979392901DC012100E00021084050B101
:1002D000E5480079E249097801EB810100EB410032
:1002E0003038DF4908700020DE4908707047DF4869
:1002F0000078DF49097888420BDBDC480078DC496C
:100300000978884212D1D9484078DA490978884278
:100310000CDAD7480078D8490870D6480078D74911
:100320000870D248C079D64908704AE0CF480078B2
:10033000CF49497888420BDBCC480078CC494978D2
:10034000884212D1C9484078CA49497888420CDAB3
:10035000C7484078C8490870C6484078C7490870FF
:10036000C248C079C64908702BE0C0480078C0492F
:10037000897888420BDBBD480078BD49897888427E
:1003800012D1BA484078BB49897888420CDAB8481B
:100390008078B9490870B7488078B8490870B34880
:1003A000C079B74908700CE0B1480078B2490870CC
:1003B000B0480078B1490870AC48C079401CB049D9
:1003C0000870704770B5002009E0AE4D2D5CA84E56
:1003D0003554AD4D2D5CA74E3554451CE8B203286D
:1003E000F3DB002020E00146451CEAB208E0A04D06
:1003F0006D5C9F4EB65CB54200DD1146551CEAB2FD
:10040000032AF4DB81420DD0994D2B5C6D5C984E34
:10041000355435466B54974D2C5C6D5C954E355478
:1004200035466C54451CE8B20328DCDB70BDADF5E5
:100430004C7D0020C990C890C790C6905021B2A8AA
:1004400005F040FD50219EA805F03CFD50218AA8F2
:1004500005F038FD502176A805F034FD342169A857
:1004600005F030FD502155A805F02CFD502141A884
:1004700005F028FD50212DA805F024FD282123A8F2
:1004800005F020FD4FF4FC60229002202190142002
:1004900020900C201F900A201E901D900020179085
:1004A000169015901490119010900F900E900B9044
:1004B0000A900990089003F057FF04F0DBF803F06E
:1004C000BDFF4FF4E13003F0CEFF41F61F4141F292
:1004D000873004F0AFFD4FF4165004F0C6FE4FF421
:1004E000165005F0CFF84FF4165005F003F804F05D
:1004F00021F94FF4FA6003F074FF0020634908709B
:1005000063490870CA9004F092FC00BF04F069FAD5
:100510000028FBD1282013210B461B22CDE9001017
:1005200002214FF4FC6004F0C2FAFFF74BFFFFF723
:10053000DEFE002051490978CDE900104B48C07912
:1005400005904A48807904904848808803904A483A
:10055000037803A807C804F085FB01F023BEFFF76A
:10056000C6FE4248808822904048807921903F48CA
:10057000C07920903D4800781F903C4840781E90FC
:100580003A4880781D9043A004F02DFD012804D145
:1005900005F0FFF9424805F0AEF9322003F021FFE3
:1005A000FFF76AFE3F48008800F40040002801F091
:1005B000678500203B49088034480078A0B93AA0FC
:1005C00003F0EEFF264909780A2901D1012100E054
:1005D000002108430028EAD035A005F055FA012093
:1005E0002A49087001F04CBD28480078012875D1CF
:1005F00034A003F0D5FF1A490978032901D101215C
:1006000000E000210843002871D0304805F03CFA92
:10061000DDE91410CDE900012D49C8A8DDE9163245
:1006200005F03EFAC8A805F02FFADDE90E10CDE975
:1006300000012849C7A8DDE9103205F031FAC7A842
:1006400005F022FADDE90810CDE900012249C6A82B
:10065000DDE90A3205F024FAC6A805F015FA3FE0F4
:100660001F0000201C00002012000020700100204C
:1006700000000020030000200D0000200E000020DC
:100680000C000020060000200900002021000020AE
:10069000200000204E4545444149440D0A00000019
:1006A00098000020540000205B424E3A31305D003B
:1006B000434C532837293B5350472832293B0D0AD6
:1006C000000000005B424E3A335D0000D87700081E
:1006D000A87900086C7B0008887A000861E106E0D0
:1006E000F1A005F0D1F90220FE4908707AE7FEA0DA
:1006F00003F056FFFE490978042901D1012100E0E9
:100700000021084300287DD0FA4805F0BDF99DF886
:100710002803002877DD9DF82823F74969A805F00C
:10072000BFF969A805F0B0F9F44800788DF8100019
:10073000F24840788DF81100F04880788DF812006A
:10074000EE48C0788DF81300EC4800798DF814005D
:10075000EA4840798DF81500E84880798DF8160050
:10076000E648C0798DF81700DDE9040104F0F1FBDB
:1007700010B1B2A805F088F9E14800788DF81000B2
:10078000DF4840788DF81100DD4880788DF8120040
:10079000DB48C0788DF81300D94800798DF8140033
:1007A000D74840798DF81500D54880798DF8160026
:1007B000D348C0798DF81700DDE9040104F0C9FBC6
:1007C00010B19EA805F060F9CE4800788DF81000B1
:1007D000CC4840788DF81100CA4880788DF8120016
:1007E000C848C0788DF81300C64800798DF8140009
:1007F000C44840798DF81500C24880798DF81600FC
:10080000C04801E016E00BE0C0798DF81700DDE983
:10081000040104F09EFB30B18AA805F035F902E02E
:10082000B9A005F031F9C7A005F02EF90120AD49B6
:100830000870D7E6C4A003F0B3FEAD4909780529D6
:1008400001D1012100E00021084368B3C0A005F0F8
:100850001BF9CD48C0790090CB4880790590CA48F3
:10086000808804900246C949C8A8059B05F018F97C
:10087000C8A805F009F9C44880780090C2484078BB
:100880000590C148007804900246C149C6A8059B5E
:1008900005F006F9C6A805F0F7F8AAA005F0F4F8E7
:1008A0000820904908709DE6BAA003F079FE9049AF
:1008B0000978062901D1012100E000210843002820
:1008C00041D0B64805F0E0F8B54800780590B54845
:1008D000007804900246B4A1C8A8059B05F0E0F892
:1008E000C8A805F0D1F8AE4840780590AD484078EA
:1008F00004900246BAA1C8A8059B05F0D1F8C8A883
:1009000005F0C2F8A64880780590A6488078049043
:100910000246C1A1C8A8059B05F0C2F8C8A805F009
:10092000B3F8CB480378CB480278CBA1C8A805F030
:10093000B7F8C8A805F0A8F882A005F0A5F801202E
:10094000684908704EE6D3A003F02AFE684909788A
:10095000072901D1012100E0002108430028A2D08D
:10096000CEA005F091F8D348007818B9D2A005F0D0
:100970008BF807E0CF4AD9A1C8A805F091F8C8A81C
:1009800005F082F8CB4AE349C6A805F089F8C6A865
:1009900005F07AF86BA005F077F80D205149087042
:1009A00020E65048007802287CD1DBA003F0F8FD57
:1009B0004F490978012900D100E00021084348B1DE
:1009C0000120D7490870D7A005F05EF803204549FB
:1009D000087040E2D8A003F0E3FD454909780229F8
:1009E00001D1012100E00021084348B10220CC4997
:1009F0000870CCA005F048F803203A4908702AE2B4
:100A0000AFF2403003F0CCFD39490978032901D118
:100A1000012100E00021084348B10320C0490870CB
:100A2000C0A005F031F803202E49087013E22EA073
:100A300003F0B6FD2E490978042901D1012100E017
:100A40000021084338B1AFF2983005F01DF80120BD
:100A500024490870FFE1BAA003F0A2FD24490978F7
:100A60000B2901D1012100E000210843D8B1012068
:100A7000AB490870B4A005F007F8052019490870C3
:100A800017981B9016981A9015981990149818900A
:100A90000A22DDE9160102FB0100C0B21390DDE974
:100AA00014015BE1F0E169E154504E2832293B53D7
:100AB000585928302C30293B5049432831332C32A7
:100AC00035302C3138293B42544E28342C31332CCC
:100AD0003235302C37312C3330392C302C3432290C
:100AE0003B0D0A00210000205B424E3A345D0000BD
:100AF0001F00002014770008F87800085A00002032
:100B0000620000206A0000205053323428312C3219
:100B10002C3132302C27BBB9CEB4CCEDBCD3C8CEEF
:100B2000BACED2A9CEEFA3ACC7EBD4DAB2CBB5A57F
:100B3000BDE7C3E6CCEDBCD3D2A9CEEF272C31293B
:100B40003B0000000D0A00005B424E3A355D00009C
:100B5000434C532837293B4250494328312C302CF1
:100B6000302C3131293B5053323428312C34302C45
:100B700032302C27CFD6D4DACAB1BCE4CEAAA3BA7D
:100B8000272C33293B000000700100204479000825
:100B9000507C00085B424E3A365D0000B476000897
:100BA0000900002006000020535859283136302C07
:100BB000313430293B5053323428312C302C3130F1
:100BC0002C27C4D6D6D3D2BB3A202564203A25643C
:100BD00020272C30293B53585928302C30293B00F2
:100BE000535859283136302C313830293B50533244
:100BF0003428312C302C31302C27C4D6D6D3B6FE35
:100C00003A202564203A256420272C30293B53586C
:100C10005928302C30293B00535859283136302C74
:100C2000323230293B5053323428312C302C313081
:100C30002C27C4D6D6D3C8FD3A202564203A256493
:100C400020272C30293B53585928302C30293B0081
:100C50000E0000200D000020535859283133302C4D
:100C60003830293B5053323428312C302C31302C41
:100C700027CFC2D2BBB8F6C4D6D6D33A202564203B
:100C80003A256420272C30293B53585928302C30E2
:100C9000293B00005B424E3A375D0000434C53282D
:100CA00037293B4250494328312C302C302C3131EC
:100CB000293B0000980000205053323428312C3159
:100CC00032302C36302C27C4BFC7B0CEB4B0F3B608
:100CD000A8BAC5C2EB272C30293B0000535859282D
:100CE00032302C3630293B5053323428312C302CC2
:100CF00031302C27D2D1B0F3B6A8BAC5C2EB3A2016
:100D00002573272C30293B53585928302C30293B48
:100D100000000000E07C00085B424E3A315D0000BC
:100D200020000020434C532837293B53504728319B
:100D300030293B0D0A0000005B424E3A325D000054
:100D40005B424E3A31315D00434C532837293B53C7
:100D500050472834293B0D0A0000000002FB010027
:100D6000C0B21290F84913980870F84912980870A8
:100D7000F74913980870129848706CE0F5A003F0DA
:100D80000FFCF64909780C2901D1012100E000216E
:100D9000084350B30220F2490870AFF2540004F047
:100DA00073FE0520EF49087011981B9010981A9057
:100DB0000F9819900E9818900A22DDE9100102FB95
:100DC0000100C0B20D90DDE90E0102FB0100C0B2CE
:100DD0000C90DD490D984870DC490C984870DC494E
:100DE0000D9808700C98487035E0DFA003F0D8FB30
:100DF000DA4909780D2901D1012100E000210843D9
:100E000048B30320D6490870AFF2C40004F03CFE9A
:100E10000520D44908700B981B900A981A900998DD
:100E20001990089818900A22DDE90A0102FB0100D6
:100E3000C0B20790DDE9080102FB0100C0B20690D4
:100E4000C14907988870C14906988870C0490798B9
:100E5000087006984870FFF7B5FAFFF748FA0020C7
:100E6000C3490978CDE90010C248C0790590C1484E
:100E700080790490BF4880880390BF48037803A816
:100E800007C803F0EFFE31E4B648007803287DD1AF
:100E9000BAA003F085FBB14909780E2901D10121DF
:100EA00000E000210843002871D0B64800783038AF
:100EB000C0B21B90B34840783038C0B21A90B148E5
:100EC00080783038C0B21990AE48C0783038C0B29F
:100ED0001890AD4804F0D8FDDDE919211898CDE946
:100EE000001202909E480278A849C8A81B9B04F0F3
:100EF000D7FDC8A804F0C8FDA54804F0C5FD03202F
:100F00009849087096480078012820D11B981790BE
:100F10001A98169019981590189814900A22DDE9DD
:100F2000160102FB0100C0B21390DDE9140102FBBF
:100F30000100C0B212908449139808708349129836
:100F40000870834913980870129848704BE08448E1
:100F50000078022823D11B9811901A9810901998A4
:100F60000F9018980E900A22DDE9100102FB010093
:100F7000C0B20D90DDE90E0102FB0100C0B20C9081
:100F800071490D98487071490C9801E06DE043E09B
:100F900048706F490D9808700C98487023E07048AD
:100FA000007803281FD11B980B901A980A90199863
:100FB0000990189808900A22DDE90A0102FB010055
:100FC000C0B20790DDE9080102FB0100C0B2069043
:100FD0005D49079888705D49069888705C49079854
:100FE000087006984870FFF7EDF9FFF780F90020C8
:100FF0005F490978CDE900105E48C07905905D48E9
:10100000807904905B48808803905B48037803A84C
:1010100007C803F027FE0CE45EA003F0C1FA4F49B5
:101020000978102901D1012100E00021084338B1DD
:10103000AFF6841004F028FD01204A49087032E41C
:1010400056A003F0ADFA45490978122901D10121D2
:1010500000E0002108430028DDD005204149087048
:10106000AFF21C3004F010FD1DE43E480078052866
:1010700067D1AFF2E04003F093FA384909780629C6
:1010800001D1012100E000210843A8B10120CB904B
:10109000444804F0F9FCCB9B303343A1C8A8CB9A59
:1010A00004F0FEFCC8A804F0EFFC06202D490870EF
:1010B00001202749C87145E4AFF2284003F070FAD7
:1010C00026490978072901D1012100E000210843C0
:1010D000A8B10220CB90334804F0D6FCCB9B303330
:1010E00031A1C8A8CB9A04F0DBFCC8A804F0CCFC62
:1010F00002201749C87106201A49087022E436A058
:1011000003F04EFA15490978082901D1012100E0C0
:1011100000210843B0B10320CB90224804F0B4FC76
:10112000CB9B303320A1C8A8CB9A04F0B9FCC8A847
:1011300004F0AAFC03200649C8710620094908707A
:101140002EE498E04CE0000006000020090000209A
:10115000720000205B424E3A31325D001F000020D9
:1011600020000020210000205B424E3A31335D0018
:101170000E000020700100200D0000205B424E3A5E
:1011800031345D0088000020747700087475000811
:10119000E47300085B424E3A31365D005B424E3AE2
:1011A00031385D003C780008504943283136302CF6
:1011B00036302C2564293B5053323428312C3135BC
:1011C000302C3130302C27D2A9C6B72025632027F8
:1011D0002C31293B0D0A00005B424E3A385D00007D
:1011E000FDA003F0DDF9FE490978092901D10121AB
:1011F00000E000210843B0B10420CB90F94804F08E
:1012000043FCCB9B3033AFF26001C8A8CB9A04F00B
:1012100047FCC8A804F038FC0620F34908700420F5
:10122000F249C8712FE6AFF2E06003F0B9F9EC497A
:101230000978052901D1012100E000210843002897
:10124000F0D0EB4804F020FCDDE919211898CDE935
:1012500000120290E7480278E749C8A81B9B04F0F7
:101260001FFCC8A804F010FCE44804F00DFC0320A7
:10127000DD49087007E6DC480078062840D1AFF663
:10128000BC3003F08DF9D6490978032901D1012139
:1012900000E000210843E8B10720D3490870D8A036
:1012A00004F0F2FBCB98012802D1D049C871EAE5DD
:1012B000CB98022802D1CD49C871E4E5CB98032828
:1012C00002D1CA49C871DEE5CB980428AAD1C74922
:1012D000C871D8E5AFF2F07003F062F9C04909783F
:1012E000042901D1012100E000210843002899D000
:1012F0000520BD490870AFF2B05004F0C5FBC2E54F
:10130000B9480078072870D1AFF2901003F048F97F
:10131000B34909780E2901D1012100E000210843D9
:10132000002879D0BB4800783038C0B21C90BA4849
:1013300004F0AAFBAD48C0790590AC48C079049090
:101340000246B6A1C7A8059B04F0AAFBC7A804F0F3
:101350009BFBBEA1C9A81C9A04F0A2FBC9A804F07B
:1013600093FBC54804F090FBA248007801283DD1CA
:101370009E480078C14908709C48407848709B4856
:10138000C079012806D0022808D003280AD00428F2
:1013900010D10BE0B9491C98C8700CE0B7491C98F3
:1013A000087108E0B5491C98487104E0B3491C98DD
:1013B000887100E000BF00BFB0488079AF4949792B
:1013C000AE4A1279AD4BDB78CDE90032CDE902109F
:1013D000AA4840780590A948007804900246A8A140
:1013E00055A8059B04F05CFB82E074E1814800781D
:1013F00002283DD17D480078A54908707B48407897
:1014000048707A48C079012807D0022809D00328FB
:101410000BD0042811D10CE06EE09D491C98C870D7
:101420000CE09B491C98087108E099491C98487188
:1014300004E097491C98887100E000BF00BF944801
:10144000807993494979924A1279914BDB78CDE9B9
:101450000032CDE902108E48407805908C48007823
:101460000490024686A141A8059B04F019FB3FE0C9
:101470006048007803283BD15C48007885490870B3
:101480005A48407848705948C079012806D0022847
:1014900008D003280AD0042810D10BE07D491C98FD
:1014A000C8700CE07B491C98087108E079491C98C9
:1014B000487104E077491C98887100E000BF00BFC4
:1014C0007448807973494979724A1279714BDB7893
:1014D000CDE90032CDE902106E48407805906D48A4
:1014E00000780490024666A12DA8059B04F0D8FA66
:1014F00007203D490870C6E4AFF2683003F050F8A9
:1015000037490978102901D1012100E00021084361
:1015100038B1052034490870AFF2D47004F0B4FA41
:10152000B1E4AFF2883003F03BF82D490978122975
:1015300001D1012100E000210843E8B3AFF690603B
:1015400004F0A2FA4D48817940794C4A12794B4B0C
:10155000DB78CDE90032CDE90201484840780590BA
:1015600046480078049002464B49B2A8059B04F017
:1015700097FA4748817942790079454BDB78CDE984
:101580000030CDE90221424840780590404800787B
:101590000490024641499EA8059B04F081FA3D480B
:1015A00080793C494A7909793A4BDB78CDE90031B9
:1015B000CDE90220374800E078E0407805903548D2
:1015C00000780490024636498AA8059B04F068FA20
:1015D00000200349087065E05B424E3A395D000027
:1015E0001F0000203C78000821000020720000202D
:1015F000747700082000002014760008E4730008C7
:10160000434C532837293B5350472836293B0D0A72
:101610000000000088000020307500085049432871
:101620003136302C36302C2564293B505332342847
:10163000312C3135302C3130302C27D2A9C6B7208F
:10164000256420272C31293B000000005053323400
:1016500028312C34302C3134302C27C3BFB4CEB7D2
:10166000FED3C3B5C4BCC1C1BFCEAA20256420C16E
:10167000A3272C30293B0000887300085A00002063
:101680002564256425642564256425640000000024
:10169000620000206A000020407400089074000876
:1016A000E07400080120FD490870B4E4FCA002F0D9
:1016B00077FFFD490978112901D1012100E00021BE
:1016C00008430028F1D00520F4490870AFF68810CF
:1016D00004F0DAF99FE4F148007808284FD1AFF61A
:1016E000C81002F05DFFF0490978012900D100E03F
:1016F0000021084330B10920E8490870EBA004F04C
:10170000C3F988E4AFF6D01002F04AFFE649097841
:10171000022901D1012100E00021084330B10A2053
:10172000DE490870E6A004F0AFF974E4AFF6E830E3
:1017300002F036FFDC490978052901D1012100E0DA
:101740000021084330B1E34804F09EF90120D34959
:10175000087060E4AFF6182002F022FFD249097841
:101760000B2901D1012100E00021084300289CD071
:10177000D84804F089F90120C84908704BE4C748EB
:101780000078092878D1AFF20C6002F009FFC64951
:1017900009780E2901D1012100E000210843E0B3BE
:1017A000CD48007830384FF47A714843CA494978B7
:1017B000303901EBC10202EB011100EB8101C64897
:1017C0008078303800EB800001EB4001C248C078DF
:1017D0003038084480B22290BF4840793038BE4942
:1017E0000979303901EB810100EB4100C0B2219051
:1017F000B948C0793038B8498979303901EB81016D
:1018000000EB4100C0B22090DDE91D10CDE90001E0
:10181000DDE91F32DDE9211000E023E003F047F9A4
:10182000AFF6D44004F030F920980090AB49C8A836
:10183000DDE9213204F034F9C8A804F025F91D9837
:101840000090A749C6A8DDE91E3204F029F9C6A810
:1018500004F01AF9AFF2846004F016F908208F49F9
:10186000087028E4AFF2D46002F09AFE8E4909783D
:10187000102902D1012101E033E0002108430028B2
:10188000EFD0AFF6345004F0FFF89648C0790090DE
:1018900094488079059093488088049002468F4947
:1018A000C8A8059B04F0FCF8C8A804F0EDF88D4822
:1018B000807800908B48407805908A4800780490A2
:1018C00002468749C6A8059B04F0EAF8C6A804F0BA
:1018D000DBF8AFF2007004F0D7F808206F49087009
:1018E000CEE36E4800780A2876D1AFF2707002F02D
:1018F00057FE6D4909780E2901D1012100E0002130
:101900000843E8B37448407830387349097830396F
:1019100001EB810100EB4100C0B21F906E48C0781E
:1019200030386D498978303901EB810100EB410095
:10193000C0B21E906848407930386749097930391B
:1019400001EB810100EB4100C0B21D90DDE91D10EB
:10195000CDE90001DDE91F32DDE9211003F0A7F830
:10196000AFF6146004F090F8209800905B49C8A886
:10197000DDE9213204F094F8C8A804F085F800E00D
:101980002BE01D9800905649C6A8DDE91E3204F0F0
:1019900087F8C6A804F078F8AFF2C87004F074F8BD
:1019A000FEF710FDFEF7A3FC00204F490978CDE9B2
:1019B00000104C48C07905904A4880790490494805
:1019C000808803904948037803A807C803F04AF9C0
:1019D00008203249087053E33DE0AFF6480002F0BA
:1019E000DFFD31490978102901D1012100E00021F2
:1019F00008430028EFD0AFF6A86004F045F8394856
:101A0000C0790090374880790590364880880490E6
:101A100002463249C8A8059B04F042F8C8A804F061
:101A200033F83048807800902E48407805902D4853
:101A30000078049002462A49C6A8059B04F030F8B5
:101A4000C6A804F021F8AFF6740004F01DF80820D1
:101A50001249087014E3114800780B287ED1FEF774
:101A60000BFCAFF64C5002F09BFD0F4909780129A1
:101A700000D100E00021084378B103F0B0FA012062
:101A800006490870134803F0FFFF0020184908704A
:101A9000184908701849087030E03FE02100002024
:101AA0005B424E3A31375D001F000020434C532803
:101AB00037293B535047283132293B0D0A0000009B
:101AC000434C532837293B535047283133293B0D8A
:101AD0000A000000B00600088800002044790008D1
:101AE000507C0008700100200E0000200D00002036
:101AF000110000202200002023000020F6A003F0A7
:101B000069FC0120FE490860FE49C1F89801FC49C2
:101B100008310860FB49C1F8A001B1E2AFF6E85016
:101B200002F03EFDF8490978022901D1012100E0C7
:101B30000021084300288DD003F051FA0B20F3490F
:101B400008700020F2490870F2490870F2490870E4
:101B5000F2480078F2490978884200E02CE15ED131
:101B6000EE484078EF490978884258D1EB48C07870
:101B700088B1EA48C0780246EBA1059023A803F09B
:101B80008FFF23A803F026FC4FF47A7002F029FCA3
:101B90000020DB490860E148007990B1DF48007916
:101BA0000246E5A1059023A803F07AFF23A803F0DD
:101BB00011FC4FF47A7002F014FC0020D049091D8A
:101BC0000860D648407990B1D44840790246DEA1F9
:101BD000059023A803F064FF23A803F0FBFB4FF458
:101BE0007A7002F0FEFB0020C54908310860CB483E
:101BF0008079002812D0C94880790246D6A1059084
:101C000023A803F04DFF23A803F0E4FB4FF47A7000
:101C100002F0E7FB0020BA490C310860C8E0D24866
:101C20000078BF49097888425DD1CF484078BD49E6
:101C30000978884257D1CC48C07888B1CA48C07862
:101C40000246B9A1059023A803F02AFF23A803F0B8
:101C5000C1FB4FF47A7002F0C4FB0020A849086071
:101C6000C148007990B1C04800790246B2A1059000
:101C700023A803F015FF23A803F0ACFB4FF47A7000
:101C800002F0AFFB00209E49091D0860B64840796C
:101C900090B1B54840790246ABA1059023A803F066
:101CA000FFFE23A803F096FB4FF47A7002F099FB35
:101CB0000020934908310860AB488079F0B3AA4806
:101CC00080790246A4A1059023A803F0E9FE23A889
:101CD00003F080FB4FF47A7002F083FB0020884908
:101CE0000C31086064E0A14800788D490978884289
:101CF0005ED19E4840788B490978884258D19B48EC
:101D0000C07888B19948C078024687A1059023A879
:101D100003F0C6FE23A803F05DFB4FF47A7002F0D7
:101D200060FB00207649086090480079A0B18F4898
:101D30000079024680A1059023A800E038E003F076
:101D4000AFFE23A803F046FB4FF47A7002F049FB84
:101D500000206B49091D08608448407990B1834890
:101D60004079024678A1059023A803F099FE23A8A4
:101D700003F030FB4FF47A7002F033FB002060492F
:101D8000083108607948807990B1784880790246B6
:101D900071A1059023A803F083FE23A803F01AFB8A
:101DA0004FF47A7002F01DFB002055490C31086099
:101DB0000B205649087063E1544800780C2871D113
:101DC000FEF75AFAAFF64C4002F0EAFB4E490978AA
:101DD0000E2901D1012100E00021084310B30020A9
:101DE000059008E062490598095C624A115405981B
:101DF000401CC0B205905E490598085C0028F1D1EE
:101E00005DA003F041FE5B4A6BA1C7A803F048FE4A
:101E1000C7A803F039FE704803F036FE0C203B499A
:101E200008702DE1AFF6944002F0BAFB364909780C
:101E3000102901D1012100E00021084330B1012027
:101E400032490870654803F01FFE19E1AFF2B03067
:101E500002F0A6FB2C490978112901D1012100E0EB
:101E60000021084330B10C21284801705CA003F028
:101E70000BFE05E1AFF6DC4002F092FB2249097847
:101E8000122901D1012100E00021084310B3594873
:101E900003F0FAFD3748007828B956481C3003F0A3
:101EA000F3FD09E0ADE0334A52494031C8A803F0E0
:101EB000F7FDC8A803F0E8FD2E4A4F49C6A803F075
:101EC000EFFDC6A803F0E0FDAFF6F84003F0DCFD3F
:101ED0000D2093E0ADE00000D2D1BEADCDEAB3C994
:101EE000B1BEB4CEB3D4D2A9A3ACD7A3C4FAC9EDC2
:101EF000CCE5BDA1BFB5CDF2CAC2C8E7D2E20000B1
:101F000094012342000023421F00002021000020F2
:101F10001100002022000020230000205A00002091
:101F20000F00002010000020D0E8D2AAB3D461D264
:101F3000A92564BFC5000000D0E8D2AAB3D462D2FC
:101F4000A92564BFC5000000D0E8D2AAB3D463D2EB
:101F5000A92564BFC5000000D0E8D2AAB3D464D2DA
:101F6000A92564BFC5000000620000206A000020AF
:101F70008800002098000020434C532837293B421A
:101F800050494328312C302C302C3131293B5053CF
:101F9000323428312C34302C32302C27C7EBC8B7E0
:101FA000C8CFBDF4BCB1BAF4BEC8BAC5C2EBA3BABF
:101FB000272C30293B0000005053323428312C317B
:101FC00030302C3135302C2763616C6C3A2025730E
:101FD00020272C31293B000088730008B006000838
:101FE000434C532837293B535047283134293B0D64
:101FF0000A0000009C0C0008E07C00086A49087098
:102000003EE0694800780D283AD1FEF735F9674877
:1020100002F0C6FA66490978012900D100E00021E2
:10202000084338B10C2160480170AFF24C0003F056
:102030002BFD25E05F4802F0B3FA5D4909780529D8
:1020400001D1012100E00021084330B15A4803F0DA
:102050001BFD01205449087012E05448283002F05A
:102060009FFA534909780B2901D1012100E0002191
:10207000084328B1504803F007FD01214A48017088
:102080004E4800788DF800004C4840788DF80100EB
:102090004A4880788DF802004848C0788DF80300DF
:1020A000464800798DF80400444840798DF80500D1
:1020B000424880798DF806004048C0798DF80700C5
:1020C000DDE9000102F045FF04463D4800788DF847
:1020D00008003B4840788DF80900394880788DF831
:1020E0000A003748C0788DF80B00354800798DF824
:1020F0000C00334840798DF80D00314880798DF817
:102100000E002F48C0798DF80F00DDE9020102F0C2
:1021100020FF04442B4800788DF8100029484078AF
:102120008DF81100274880788DF812002548C07876
:102130008DF81300234800798DF814002148407968
:102140008DF815001F4880798DF816001D48C0795C
:102150008DF81700DDE9040102F0FBFE2044C0B257
:10216000CA9019480078012807D118A003F032F965
:102170004FF47A7002F035F911E013480078022824
:102180000DD10020104908700B4803F07DFC0120A0
:102190000549087000201249087002F020FF11A0C4
:1021A00002F00CFFFEF7DBB921000020180D00083B
:1021B0001F000020480B0008B00600085A0000204D
:1021C000620000206A000020220000202020202041
:1021D000BFAACABCB3D4D2A9C0B22020202000001C
:1021E000230000205348414B450D0A00704700BFB3
:1021F000FEE700BFFEE700BFFEE700BFFEE7704757
:1022000070477047704700000CB5002001900090A7
:102210006C48006840F480306A49086000BF694833
:10222000006800F4003000900198401C0190009874
:1022300018B90198B0F5A06FF1D16248006800F4B8
:10224000003010B10120009001E0002000900098C3
:10225000012843D15C48006840F010005A490860EA
:102260000846006820F0030008600846006840F057
:102270000200086053484068524948600846406878
:1022800048600846406840F48060486008464068FE
:1022900020F47C1048600846406840F4E81048602C
:1022A0000846006840F08070086000BF454800683C
:1022B00000F000700028F9D04248406820F0030088
:1022C000404948600846406840F00200486000BF4E
:1022D0003C48406800F00C000828F9D10CBD10B54E
:1022E000FFF792FF10BD10B53648006840F00100BE
:1022F000344908600846406834490840314948601C
:1023000008460068324908402E49086008460068BF
:1023100020F4802008600846406820F4FE004860F1
:102320004FF41F008860FFF7DAFF4FF00060294983
:10233000086010BD10B5002100200022214B5B6811
:1023400003F00C0121B1042906D0082928D107E0A7
:10235000214B224C236027E01F4B204C236023E0BD
:10236000184B5B6803F47010164B5B6803F4803203
:10237000022303EB904022B9194B4343174C2360CF
:102380000DE0104B5B6803F4003323B1144B43435F
:10239000124C236003E0104B4343104C236003E0D6
:1023A0000D4B0E4C236000BF00BF064B5B68C3F3B0
:1023B00003130C4CE15C094B1B68CB40074C2360BA
:1023C00010BD000000100240002002400000FFF895
:1023D000FFFFF6FE08ED00E000127A002400002066
:1023E00000093D002800002031490143314A1160B5
:1023F000704770B5002100230F22C47804B32D4C20
:10240000246804F4E064C4F5E064210AC1F1040323
:10241000CA40447804FA03F1847814402143090146
:10242000254C0678A155047804F01F050124AC4022
:1024300005786D11AD0005F1E025C5F8004109E012
:10244000047804F01F050124AC401C4D0678761179
:1024500045F8264070BD1A4A0A400243154B1B1F1F
:102460001A60704739B1134A121D12680243114BAA
:102470001B1D1A6006E00F4A121D126882430D4BA5
:102480001B1D1A607047042808D14FF0E02109692C
:1024900041F004014FF0E022116107E04FF0E0212C
:1024A000096921F004014FF0E0221161704700003A
:1024B0000000FA050CED00E000E400E080E100E03F
:1024C00080FFFF1F10B5012000F03EFD002000F04E
:1024D0003BFD10BD2A49086070472949091F086063
:1024E0007047274984310860704701460020254A1B
:1024F00010884FF67F4210400843224A10807047F0
:10250000014600201F4A10884FF680721040084391
:102510001C4A1080704708B500220092194A2C3AD4
:102520000092009A02440092009A116008BD08B51A
:1025300001460020009013482C3800900098084471
:1025400000900098008808BD0D489C300068C0B21B
:1025500070470C480830008840F0010009490831F4
:10256000088070470648A0300068C0B27047054830
:102570000830008840F002000249083108807047A6
:1025800004860D422C6C004001684FF6FE7211402B
:1025900001600021016041608160C1608D49884215
:1025A00008D18C490839496841F00F01894A083A35
:1025B00051608AE087491431884208D18549083939
:1025C000496841F0F001834A083A51607DE0814951
:1025D0002831884208D17F490839496841F470613F
:1025E0007C4A083A516070E07A493C31884208D10F
:1025F00078490839496841F47041764A083A51608F
:1026000063E074495031884208D1724908394968F9
:1026100041F470216F4A083A516056E06D496431C7
:10262000884208D16B490839496841F47001694A08
:10263000083A516049E067497831884208D16549D4
:102640000839496841F07061624A083A51603CE0DB
:102650006149884206D1011F096841F00F01021F3C
:10266000116032E05C491431884208D15A49091F8F
:10267000096841F0F001584A121F116025E05649DF
:102680002831884208D15449091F096841F4706112
:10269000514A121F116018E04F493C31884208D15D
:1026A0004D49091F096841F470414B4A121F1160DE
:1026B0000BE049495031884207D14749091F096851
:1026C00041F47021444A121F1160704710B5002276
:1026D000026847F6F0739A430C6A8B6823430C69CF
:1026E00023434C6923438C692343CC6923434C6ABD
:1026F00023438C6A23431A430260CB6843600B6810
:1027000083604B68C36010BD00210160416081603F
:10271000C160016141618161C161016241628162A7
:10272000704721B1026842F00102026004E00268D1
:102730004FF6FE731A40026070471AB103680B43EC
:10274000036002E003688B43036070474160704799
:102750000146486880B2704701460020002201F01F
:1027600080531BB11C4B083B1A6802E0194B083B15
:102770001A6802EA01030BB1012000E00020704753
:1027800000F0805119B11449091F086002E0114995
:1027900008394860704701460020002201F080534C
:1027A0001BB10D4B083B1A6802E00A4B083B1A6844
:1027B00002EA01030BB1012000E00020704700F0A5
:1027C000805119B10449091F086002E00149083924
:1027D00048607047080002400804024010B50446F3
:1027E000CC48844208D10121042000F093FB002151
:1027F000042000F08FFB46E0C748844208D1012145
:10280000082000F087FB0021082000F083FB3AE05D
:10281000C248844208D10121102000F07BFB002136
:10282000102000F077FB2EE0BD48844208D1012142
:10283000202000F06FFB0021202000F06BFB22E045
:10284000B848844208D10121402000F063FB0021F8
:10285000402000F05FFB16E0B348844208D101211C
:10286000802000F057FB0021802000F053FB0AE09D
:10287000AE48844207D10121801500F04BFB0021B6
:10288000A01500F047FB10BD10B50121084600F06F
:1028900041FB0021012000F03DFB10BD2DE9F0417E
:1028A000024600250026002000230024002791F87E
:1028B00003C00CF00F0591F803C00CF0100CBCF134
:1028C000000F03D091F802C04CEA050591F800C052
:1028D000BCF1000F31D0146800202BE04FF0010C48
:1028E0000CFA00F3B1F800C00CEA03069E4220D1B6
:1028F00083004FF00F0C0CFA03F7BC4305FA03FCFE
:102900004CEA040491F803C0BCF1280F06D14FF043
:10291000010C0CFA00FCC2F814C00AE091F803C0E4
:10292000BCF1480F05D14FF0010C0CFA00FCC2F8C5
:1029300010C0401C0828D1D31460B1F800C0BCF10D
:10294000FF0F34DD546800202EE000F1080C4FF03A
:10295000010808FA0CF3B1F800C00CEA03069E4225
:1029600021D183004FF00F0C0CFA03F7BC4305FA9A
:1029700003FC4CEA040491F803C0BCF1280F05D114
:1029800000F1080C08FA0CF8C2F8148091F803C0A2
:10299000BCF1480F07D100F1080C4FF0010808FA0C
:1029A0000CF8C2F81080401C0828CED35460BDE853
:1029B000F0814FF6FF710180022181700421C17006
:1029C00070470246002093680B400BB1012000E0E5
:1029D000002070470146886880B270470246002098
:1029E000D3680B400BB1012000E000207047014686
:1029F000C86880B2704701617047416170470AB191
:102A0000016100E041617047C16070474FF480325E
:102A10000A438261816182618269826970470246EC
:102A20000020434B18684FF68073184040EA0210AC
:102A300008433F4B186070473E49C8617047F0B586
:102A40000A46002300240021002500F00046B6F1CC
:102A5000004F02D1364EF16901E0354E7168C0F386
:102A6000034583B200F44016B6F5401F08D121F0AB
:102A700070612F4E766826F070662D4F7E6012E0F2
:102A800000F48016B6F5801F06D1032606FA05F479
:102A9000A14341F0706106E0460D360103FA06F6E7
:102AA000B14341F0706122B1460D360103FA06F6DA
:102AB000314300F00046B6F1004F02D11C4EF161E7
:102AC00001E01B4E7160F0BD30B500228B071C0F7A
:102AD0000F2303FA04F2164B08338C1053F82430FA
:102AE0009343134C08348D1044F8253023468C1042
:102AF00053F824308C07240F00FA04F423430C4CC1
:102B000008348D1044F8253030BD0A49DC310860A6
:102B10007047000000080140000C01400010014017
:102B20000014014000180140001C01400020014039
:102B3000000001400000204210B50121080700F00C
:102B4000F6F900214FF0805000F0F1F910BD2A494C
:102B50000862704728490861704701460020274AEB
:102B6000106820F0E0000843106070472249A0314F
:102B70000860704710B502460020204B186820F00E
:102B80000300104318601E4B1B6843F004031C4CE9
:102B90002360012901D130BF00E020BF184B1B6822
:102BA00023F00403164C236010BD1448006840F065
:102BB0000400124908600846006840F002000860FE
:102BC0000F48006840F004000D49086000BF00BFD6
:102BD00030BF704701460020084A52680A400AB1D7
:102BE000012000E0002070470449096841EA8001A3
:102BF000024A11607047000000000E420070004061
:102C000010ED00E0DF48006840F00100DD49086099
:102C100008464068DC490840DA49486008460068D0
:102C2000DA490840D74908600846006820F4802047
:102C300008600846406820F4FE0048604FF41F001A
:102C400088607047CF49096821F48031CD4A11600E
:102C50001146096821F480211160B0F5803F03D04E
:102C6000B0F5802F0ED106E0C649096841F48031E5
:102C7000C44A116007E0C349096841F4A021C14A70
:102C8000116000E000BF00BF704710B50146002290
:102C9000002300204A11012A02D1BA4C236806E021
:102CA000022A02D1B74C236A01E0B64C636A01F0F4
:102CB0001F02012494401C400CB1012000E00020C0
:102CC00010BD38B5002000900024002500BF312041
:102CD000FFF7DBFF05460098401C00900098B0F518
:102CE000A06F01D0002DF2D03120FFF7CEFF08B148
:102CF000012400E00024204638BD01460020A14AFE
:102D0000106820F0F80040EAC10010607047A04948
:102D100008607047024600209A4B586820F47C10E7
:102D200042EA01031843974B586070479849086678
:102D3000704701460020934A506820F00300084382
:102D4000506070478F48406800F00C0070470146A3
:102D500000208C4A506820F0F00008435060704713
:102D600001460020874A506820F4E0600843506024
:102D7000704701460020834A506820F4605040EAC2
:102D8000C1005060704729B17E4A527A02437D4BA0
:102D90005A7204E07B4A527A82437A4B5A727047E5
:102DA0007B49D8310860704701460020754A506859
:102DB00020F440400843506070470021714A20329F
:102DC0001170704A82F82010012802D004280AD11C
:102DD00004E001216B4A2032117005E00521694AA7
:102DE0002032117000E000BF00BF704769490860E1
:102DF00070476449096A0143624A11627047654934
:102E000044390860704730B50021002200240023B7
:102E10005C4D6D6805F00C0121B1042905D008292D
:102E200023D105E05C4D056022E05B4D05601FE0AD
:102E3000544D6D6805F47012524D6D6805F4803480
:102E4000022505EB92421CB9544D554305600BE039
:102E50004C4D6D6805F400351DB1504D554305606E
:102E600002E04D4D5543056002E04B4D056000BF4B
:102E700000BF444D6D6805F0F0010909484D6B5CD9
:102E80000568DD4045603F4D6D6805F4E061090A65
:102E9000434D6B5C4568DD4085603A4D6D6805F4D7
:102EA0006051C90A3E4D6B5C4568DD40C560354DDB
:102EB0006D6805F44041890B3A4D6B5CC568B5FB04
:102EC000F3F5056130BD29B12E4A526902432D4BFD
:102ED0005A6104E02B4A526982432A4B5A61704777
:102EE00029B1284A92690243264B9A6104E0254A97
:102EF00092698243234B9A61704729B1214AD26972
:102F00000243204BDA6104E01E4AD26982431D4B22
:102F1000DA61704729B11B4AD2680243194BDA6063
:102F200004E0184AD2688243164BDA60704729B130
:102F3000144A12690243134B1A6104E0114A1269E0
:102F40008243104B1A61704712494039086070473C
:102F50000F49C86470470B49C87170470948406AF7
:102F600040F0807007494862704701460020054ADA
:102F700092680A400AB1012000E000207047014930
:102F800088727047001002400000FFF8FFFFF6FE55
:102F9000000042428004424200127A0000093D00D3
:102FA000380000204800002029B1554A1288024309
:102FB000534B1A8004E0524A12888243504B1A80C5
:102FC00070474F48001D008840F010004C49091D13
:102FD000088070474A48001D00884FF6EF7108408E
:102FE0004749091D08807047002145481C30018869
:102FF000001F008841EA0040704700B50246FFF715
:10300000E0FF100C3E4918310880091D0A80FFF7C7
:10301000E1FF00BD00B50246FFF7D3FFC2F3034056
:10302000374908310880091D0A80FFF7D3FF00BD2A
:1030300000B50246FFF7C5FF100C3149203108806A
:10304000091D0A80FFF7C6FF00BD00212C4824306F
:103050000188001F008841EA00407047002028498D
:10306000103109880907080B2549143109880843DC
:10307000704700BF2248001D008800F02000002893
:10308000F8D070471E48001D00884FF6F7710840C1
:103090001B49091D088000BF1948001D008800F069
:1030A00008000028F8D0704701460020144A121D7D
:1030B00012880A400AB1012000E000207047104940
:1030C000091D098881430E4A121D1180704701466F
:1030D00000200B4A121D12880A40D0B2084A1288FA
:1030E0000A4012B108B1012000E0002070470449F5
:1030F000091D09888143024A121D11807047000092
:103100000028004010B50446FE48844208D1012141
:10311000C014FFF7FFFE0021E014FFF7FBFEC4E040
:10312000B4F1804F08D101210846FFF700FF0021CC
:103130000120FFF7FCFEB8E0F348844208D10121EA
:103140000220FFF7F4FE00210220FFF7F0FEACE0C2
:10315000EE48844208D101210420FFF7E8FE002157
:103160000420FFF7E4FEA0E0E948844208D10121F1
:103170000820FFF7DCFE00210820FFF7D8FE94E0CE
:10318000E448844208D101211020FFF7D0FE00213D
:103190001020FFF7CCFE88E0DF48844208D10121EF
:1031A0002020FFF7C4FE00212020FFF7C0FE7CE0B6
:1031B000DA48844208D101214014FFF7ABFE002118
:1031C0006014FFF7A7FE70E0D548844209D10121C1
:1031D000C804FFF79FFE00214FF40020FFF79AFE7E
:1031E00063E0D048844209D101210805FFF792FE2F
:1031F00000214FF48010FFF78DFE56E0CA4884424C
:1032000009D101214805FFF785FE00214FF4001088
:10321000FFF780FE49E0C548844208D101214020E3
:10322000FFF785FE00214020FFF781FE3DE0C0480A
:10323000844208D101218020FFF779FE00218020FF
:10324000FFF775FE31E0BB48844208D101218015AB
:10325000FFF76DFE0021A015FFF769FE25E0B648D7
:10326000844209D101210804FFF754FE00214FF4E4
:103270008030FFF74FFE18E0B048844209D10121A9
:103280004804FFF747FE00214FF40030FFF742FEED
:103290000BE0AB48844208D101218804FFF73AFED5
:1032A00000214FF48020FFF735FE10BD0022028878
:1032B000944B98420ED0994B98420BD0B0F1804F6E
:1032C00008D0914B984205D0904B984202D0904B39
:1032D000984204D14FF68F731A404B881A438D4B96
:1032E000984207D08C4B984204D04FF6FF431A40C7
:1032F000CB881A4302808B8883850B880385814B9A
:1033000098420BD0854B984208D08B4B984205D001
:103310008A4B984202D08A4B984201D10B7A03869D
:1033200001238382704770B5002400220023058C9E
:103330004FF6FE7635400584028C8388048B4FF669
:103340008F752C40B51E2C400D882C43751E2A40CD
:103350000D892A434D882A436A4DA8420BD06F4DF0
:10336000A84208D0744DA84205D0744DA84202D09E
:10337000734DA84213D14FF6F7752A404D892A4361
:103380004FF6FB752A408D882A434FF6FF652B4088
:103390004FF6FF552B408D892B43CD892B438380DE
:1033A0000483CD888586028470BD70B50024002218
:1033B0000023058C4FF6EF7635400584028C838818
:1033C000048B48F6FF752C404FF6FF452C400D88C6
:1033D0004FF6FF7606EA05252C434FF6DF752A40A7
:1033E0000D8906EA05152A434D8806EA05152A4384
:1033F000444DA84202D0494DA8421DD14FF67F75D9
:103400002A404D894FF6FF7606EA05152A434FF606
:10341000BF752A408D8806EA05152A434FF6FF3509
:103420002B404FF2FF752B408D8906EA85052B4313
:10343000CD8906EA85052B4383800483CD880587E3
:10344000028470BD70B5002400220023058C4FF665
:10345000FF6635400584028C8388848B4FF68F7518
:103460002C404FF6FC752C400D882C434FF6FF5531
:103470002A400D894FF6FF7606EA05252A434D8836
:1034800006EA05252A431F4DA84202D0234DA84233
:103490001DD14FF2FF752A404D894FF6FF7606EA9F
:1034A00005252A434FF6FF352A408D8806EA052573
:1034B0002A434EF6FF752B404DF6FF752B408D8944
:1034C00006EA05152B43CD8906EA05152B438380B3
:1034D0008483CD888587028470BD70B50022002367
:1034E0000024058C4EF6FF7635400584038C8488D5
:1034F000828B48F6FF752A404FF6FF452A400D881B
:1035000020E00000002C01400004004000080040C2
:10351000000C004000100040001400400034014046
:10352000004C014000500140005401400018004090
:10353000001C0040002000400040014000440140C9
:10354000004801404FF6FF7606EA05252A434DF66E
:10355000FF752B400D8906EA05352B434D8806EA99
:1035600005352B43FA4DA84202D0FA4DA84208D1A6
:103570004BF6FF752C408D894FF6FF7606EA8515D0
:103580002C4384808283CD88A0F84050038470BD92
:10359000828B4FF2FF331A408283828B4FF6FF7388
:1035A00003EA01231A4382837047F0B50C4615469F
:1035B000002200210026078C4EF6FF7C07EA0C074C
:1035C0000784828B018C4FF6FF7707EA043640F6BA
:1035D000FF473A404FF6FF7707EA05273A434FF691
:1035E000FF7707EA03373A43D94FB8420ED0D94F95
:1035F000B8420BD0B0F1804F08D0D74FB84205D0B9
:10360000D64FB84202D0D64FB84206D14DF6FF771A
:10361000394046F48057394305E047F6FF573940B3
:1036200044F48057394382830184F0BD828B4FF686
:10363000F3731A408283828B0A4382837047F0B50A
:103640000C461546002200210026078C4FF6FF6C21
:1036500007EA0C070784828B018C4FF6FF7707EA95
:1036600004264FF60C773A404FF6FF7707EA031728
:103670002F433A43B64FB8420ED0B64FB8420BD0A4
:10368000B0F1804F08D0B44FB84205D0B34FB84224
:1036900002D0B34FB84206D14FF6FF57394046F437
:1036A0008077394305E04FF2FF57394044F4807783
:1036B000394382830184F0BD028B4FF2FF331A40FD
:1036C0000283028B4FF6FF7303EA01231A4302833E
:1036D0007047F0B50C461546002200210026078CE5
:1036E0004FF6EF7C07EA0C070784028B018C4FF63C
:1036F000FF7707EA041640F6FF473A404FF6FF7798
:1037000007EA03373A434FF6FF7707EA05273A43BC
:103710008F4FB8420ED08F4FB8420BD0B0F1804FD0
:1037200008D08D4FB84205D08C4FB84202D08C4F94
:10373000B84206D14FF6DF77394046F010073943DB
:1037400005E04FF65F77394044F0100739430283B4
:103750000184F0BD028B4FF6F3731A400283028B93
:103760000A4302837047F0B50C461546002200213B
:10377000068C4FF6FE773E400684028B018C4FF696
:103780000C7632407E1C06EA03162E433243704EFE
:10379000B0420ED06F4EB0420BD0B0F1804F08D087
:1037A0006D4EB04205D06D4EB04202D06C4EB0426C
:1037B00006D14FF6FD76314044F00106314305E075
:1037C0004FF6F576314044F001063143028301841F
:1037D000F0BD70B505460C465D4885420ED05D488B
:1037E00085420BD0B5F1804F08D05B48854205D0AB
:1037F0005A48854202D05A48854200D100E000BFB5
:10380000208850B92389A28861882846FFF7ABFF3A
:10381000E1882846FFF79EFF25E0208804280AD18A
:103820002389A28861882846FFF753FFE18828464C
:10383000FFF742FF17E0208808280AD12389A288D1
:1038400061882846FFF7FBFEE1882846FFF7EEFE79
:1038500009E02389A28861882846FFF7A6FEE1884F
:103860002846FFF795FE70BD2DE9F04105460C4650
:1038700000260127608808B9022600E00026A088FB
:10388000012801D1022700E001272088A0B923895F
:10389000A28861882846FFF766FFE1882846FFF77F
:1038A00059FF23893A4631462846FFF712FFE1883F
:1038B0002846FFF701FF13E02389A2886188284684
:1038C000FFF707FFE1882846FFF7F6FE23893A460F
:1038D00031462846FFF747FFE1882846FFF73AFFC1
:1038E000BDE8F0810A884B881A438B881A43CB883D
:1038F0001A430B891A434B891A438B891A43A0F840
:10390000442070474FF6FF71818000210180C18003
:103910004180017270470021018041808180C18017
:10392000018141818181C1817047002101804180F5
:10393000012181800021C180018170470021018027
:1039400041808180C1800181418181817047000077
:10395000002C0140003401400004004000080040F9
:10396000000C004021B1028842F00102028004E014
:1039700002884FF6FE731A400280704731B1B0F8EA
:10398000442042F40042A0F8442005E0B0F844206E
:10399000C2F30E02A0F8442070471AB183890B438A
:1039A000838102E083898B438381704781827047E2
:1039B00041EA0203A0F8483070471AB183890B43EB
:1039C000838102E083898B438381704701894FF6AD
:1039D000F8721140018170470A46002101894FF6B3
:1039E0008F73194011430181704730B504460D466D
:1039F00029462046FFF7F0FF208940F0070020818C
:103A000030BD2DE9F04104460D4616461F46602D97
:103A100006D13B46012231462046FFF75AFE05E01B
:103A20003B46012231462046FFF79DFE29462046AF
:103A3000FFF7D2FF208940F007002081BDE8F08128
:103A400030B50C4600210189C9B24FF6FF7505EA71
:103A50000325154325432943018130BD2DE9F0415C
:103A600005460E4617469846002443463A463146D8
:103A70002846FFF7E5FF2C894FF6F870044044F024
:103A800007044FF68F70044044F070042C81BDE8A9
:103A9000F081F0B504460D4616461F463B463246B9
:103AA00029462046FFF7CCFF208940F48040208142
:103AB000F0BD0185828270470A46002101884FF6D9
:103AC0008F731940114301807047F0B50C461546BD
:103AD0001E460021002200230189028B038C4FF631
:103AE000F877394021434FF6FC473A4040F201173E
:103AF0003A434FF6DD773B404FF6FF7707EA06176C
:103B00002F433B43018102830384F0BD0A46002119
:103B1000018B4FF68F7319401143018370470A469A
:103B20000021018B48F6FF7319404FF6FF7303EA3B
:103B300002231943018370470A460021818B4FF607
:103B40008F7319401143818370470A460021818B8E
:103B500048F6FF7319404FF6FF7303EA0223194337
:103B60008183704721B1028842F08002028004E024
:103B700002884FF67F731A400280704721B1828815
:103B800042F00402828004E082884FF6FB731A4000
:103B90008280704721B1828842F00802828004E06E
:103BA00082884FF6F7731A408280704721B182886D
:103BB00042F00102828004E082884FF6FE731A40D0
:103BC000828070470A460021018B4FF6F773194037
:103BD0001143018370470A460021018B4FF2FF73A6
:103BE00019404FF6FF7303EA02231943018370471C
:103BF0000A460021818B4FF6F773194011438183E8
:103C000070470A460021818B4FF2FF7319404FF62F
:103C1000FF7303EA02231943818370470A46002198
:103C2000018B4FF6FB7319401143018370470A461D
:103C30000021018B4FF6FF3319404FF6FF7303EA63
:103C400002231943018370470A460021818B4FF6F6
:103C5000FB7319401143818370470A460021818B11
:103C60004FF6FF3319404FF6FF7303EA022319435F
:103C7000818370470A460021018B4FF67F731940FC
:103C80001143018370470A460021018BC1F30E01E5
:103C90004FF6FF7303EA02231943018370470A4674
:103CA0000021818B4FF67F73194011438183704748
:103CB0000A460021818BC1F30E014FF6FF7303EA20
:103CC00002231943818370470A460021018C4FF675
:103CD000FD7319401143018470470A460021018C8D
:103CE0004FF6F77319401143018470470A460021CB
:103CF000018C4FF6DF7319404FF6FF7303EA02138E
:103D00001943018470470A460021018C4FF67F73E6
:103D100019404FF6FF7303EA0213194301847047F9
:103D20000A460021018C4FF6FF5319404FF6FF73EE
:103D300003EA02231943018470470A460021018CDB
:103D40004FF2FF7319404FF6FF7303EA0223194342
:103D5000018470470A460021018C4DF6FF7319401B
:103D60004FF6FF7303EA023319430184704730B5FD
:103D7000002301248C40A3B2048C9C430484048C53
:103D800002FA01F5ADB22C43048430BD30B50023F6
:103D900004248C40A3B2048C9C430484048C02FA57
:103DA00001F5ADB22C43048430BD70B5034600204C
:103DB00000241846183001258D40ACB21D8CA54357
:103DC0001D8409B1082909D100EB6100056825F0BF
:103DD000700505600568154305600EE00D1FC5F30D
:103DE0004E052844056825F4E045056005684FF652
:103DF000FF7606EA02263543056070BD21B10288D0
:103E000042F00202028004E002884FF6FD731A407D
:103E10000280704721B1028842F00402028004E06F
:103E200002884FF6FB731A400280704721B18288E6
:103E300042F08002828004E082884FF67F731A404D
:103E40008280704702884FF6F7731A40028002881A
:103E50000A430280704782884FF68F731A4082802F
:103E600082880A438280704702894FF6F8731A40AD
:103E7000028102890A430281704702894FF67F73EB
:103E80001A40028102890A43028170478184704787
:103E900081857047818670470187704781877047A9
:103EA000A0F84010704702884FF6FF431A40028086
:103EB00002880A43028070470146888E7047014697
:103EC000088F70470146888F70470146B1F840005F
:103ED00070470146888C70470146088D704702463E
:103EE0000020138A0B400BB1012000E00020704736
:103EF000CA430282704730B50246002000230024E6
:103F0000158A05EA0103958905EA010413B10CB18C
:103F1000012000E0002030BDCA430282704700004B
:103F200010B50446FB48844209D101218803FEF7FD
:103F3000F1FF00214FF48040FEF7ECFF32E0F6483D
:103F4000844209D101214804FEF7F1FF00214FF41A
:103F50000030FEF7ECFF25E0F048844209D1012152
:103F60008804FEF7E4FF00214FF48020FEF7DFFF16
:103F700018E0EB48844209D10121C804FEF7D7FFBD
:103F800000214FF40020FEF7D2FF0BE0E548844209
:103F900008D101210805FEF7CAFF00214FF4801067
:103FA000FEF7C5FF10BD2DE9F04786B005460E4669
:103FB0000024A24600BFA1460027B08900B100BF7F
:103FC0002F462C8A4CF6FF700440F08804432C8264
:103FD000AC894EF6F3100440B088318908437189EA
:103FE00008430443AC81AC8A4FF6FF400440B089DB
:103FF0000443AC8201A8FEF706FFC648874202D1FF
:10400000DDF810A001E0DDF80CA0A88900F4004064
:1040100040B10AEBCA0000EB0A1031684900B0FB5E
:10402000F1F807E00AEBCA0000EB0A1031688900DA
:10403000B0FBF1F86420B8FBF0F004012009642122
:1040400001FB1089A88900F4004040B1322000EB48
:10405000C900B0FBF1F000F00700044308E0322093
:1040600000EB09106421B0FBF1F000F00F000443F5
:104070002C8106B0BDE8F0874FF416510160002195
:104080008180C18001810C214181002181817047A3
:1040900010B502460020108A4FF2FF0318400B882B
:1040A0004C8823438C882343CC88234318431082B5
:1040B00010BD0021018041808180C180704721B105
:1040C000828942F40052828104E082894DF6FF73B6
:1040D0001A4082817047F0B503460024002600256F
:1040E000002040F66A17B94200D100BF1846C1F35C
:1040F000421401F01F06012707FA06F5012C01D131
:104100000C3004E0022C01D1103000E014301AB160
:1041100007682F43076002E00768AF430760F0BD00
:104120001AB1838A0B43838202E0838A8B438382A2
:104130007047028A4FF6F0731A400282028A0A43DD
:104140000282704782894FF2FF731A40828182890E
:104150000A438281704721B1828942F00202828142
:1041600004E082894FF6FD731A4082817047028A0B
:104170004FF6DF731A400282028A0A4302827047B6
:1041800021B1028A42F48042028204E0028A4BF6A4
:10419000FF731A4002827047C1F3080282807047A1
:1041A00001468888C0F308007047818941F0010109
:1041B00081817047028BD2B20283028B42EA0122D4
:1041C00002837047028B02F47F420283028B0A4310
:1041D0000283704721B1828A42F02002828204E089
:1041E000828A4FF6DF731A408282704721B1828A39
:1041F00042F01002828204E0828A4FF6EF731A4086
:104200008282704721B1828A42F00802828204E0F1
:10421000828A4FF6F7731A408282704721B18289F1
:1042200042F40042828103E08289C2F30E0282815D
:10423000704721B1828A42F40062828204E0828A5D
:104240004FF2FF731A4082827047828A4FF6FB73E7
:104250001A408282828A0A438282704721B1828A0E
:1042600042F00202828204E0828A4FF6FD731A4015
:104270008282704702460020B1F5007F00D100BF66
:1042800013880B400BB1012000E00020704701F4BF
:104290000072B2F5007F00D100BFCA4302807047B0
:1042A00070B50246002400230025002040F66A165F
:1042B000B14200D100BFC1F3421501F01F03012636
:1042C00006FA03F3012D02D19689334006E0022D50
:1042D00002D1168A334001E0968A33400C1201263F
:1042E00006FA04F41688344013B10CB1012000E042
:1042F000002070BD10B50022002340F66A14A142D0
:1043000000D100BF0A1201249440A3B2DC43048010
:1043100010BD00000038014000440040004800404B
:10432000004C0040005000400948804709480047C1
:10433000FEE7FEE7FEE7FEE7FEE7FEE7FEE7FEE755
:10434000FEE7FEE704480549054A064B70470000B2
:10435000E72200083101000828080020280E00206C
:10436000280A0020280A002010B56FF00400FEF78C
:104370008AF82E4800682E49B0FBF1F02D490870EC
:104380000846007800EB4001C1EBC0104FF6FF710A
:1043900001EAC0002849088010BD0146254A12786C
:1043A0004A434FF0E0235A6100229A611A4612698B
:1043B00042F001021A6100BF4FF0E022106900F0E4
:1043C00001021AB100F48032002AF5D04FF0E02249
:1043D000126922F001024FF0E0231A6100229A6173
:1043E00070470146144A12884A434FF0E0235A614D
:1043F00000229A611A46126942F001021A6100BF56
:104400004FF0E022106900F001021AB100F480328E
:10441000002AF5D04FF0E022126922F001024FF09D
:10442000E0231A6100229A617047000024000020F6
:1044300000127A004C0000204E00002010B54FF40E
:10444000A060FDF7D1FF10BD014600BF704700BF5F
:104450007D4A128802F04002002AF9D0C2B27A4B9B
:104460001B1D1A80704710B586B00446012144F226
:104470000400FEF735FD7448FFF752FD4FF400705D
:10448000ADF8140003208DF8160018208DF81700E1
:1044900005A96E48FEF702FA4FF48060ADF81400EB
:1044A00004208DF8170005A96848FEF7F7F92520C4
:1044B0008DF8000003208DF801008DF80200012026
:1044C0008DF803006846FDF794FF01940020ADF8D5
:1044D0000800ADF80A00ADF80C00ADF810000C2093
:1044E000ADF80E0001A95848FFF75DFD012240F22A
:1044F00025515548FFF7EFFD01215348FFF7DFFD38
:1045000006B010BD5B2806D10021514A117001216F
:10451000504A117043E05D2806D100214D4A1170C8
:1045200001214D4A11703AE04A49097801290DD11B
:1045300047490978082903DA4849454A12788854D6
:1045400043490978491C424A117028E07B2806D16A
:104550000021434A11700121424A11701FE07D2859
:104560000CD100213F4A11703D490978102916DA13
:1045700000213D4A3A4B1B78D15410E03949097863
:1045800001290CD1364909780F2903DC3649344A10
:104590001278885432490978491C314A11707047A1
:1045A00070B50446204601F0F7FB05462A46214631
:1045B0002E4801F0C5FB08B9012070BD0020FCE7C2
:1045C00010B540F225512048FFF76AFE002839D087
:1045D0001D48FFF7E5FDC4B22046FFF793FFFBF748
:1045E0004BFE2348008800F4004058BB2048008858
:1045F00000F4804060B10A2C03D000201C490880E0
:1046000020E01B48008840F400401949088019E068
:104610000D2C06D11648008840F4804014490880CB
:1046200010E013480088C0F30D0010490C541048E6
:104630000088401C0E49088008460088C72801DD14
:104640000020088010BD0000003801400008014033
:104650001A0000201B0000201C0000201200002077
:104660001D0000201E00002088000020A80000205F
:104670005400002008B501214420FEF731FC04203D
:10468000ADF8000010208DF8030003208DF8020023
:1046900069461B48FEF702F904211948FEF7ABF9F9
:1046A0002020ADF8000069461648FEF7F7F82021F3
:1046B0001448FEF7A0F94020ADF800006946114803
:1046C000FEF7ECF840210F48FEF795F98020ADF891
:1046D000000069460B48FEF7E1F880210948FEF723
:1046E0008AF94FF48070ADF8000069460548FEF77E
:1046F000D5F84FF480710348FEF77DF908BD00003E
:10470000000801400018014070B50446002510E083
:10471000605D68B1615D0E48FFF73EFD00BF80211E
:104720000B48FFF7A7FD0028F9D0681CC5B200E0D0
:1047300070BDEDE710B541F28830FFF752FE05A0DD
:1047400001F0A2F94FF4C870FFF74BFE10BD000056
:1047500000380140434C532837293B5350472831F8
:10476000293B0D0A0000000008B503208DF8000069
:1047700000208DF801008DF8020001208DF8030063
:104780006846FDF736FE08BDF0B503460C461546F3
:10479000642093FBF0F0C6B2642093FBF0F700FBBB
:1047A0001730C1B2132E02DD01F16400C1B2084618
:1047B000CF1701EB977701EBA707BAB2072092FB5F
:1047C000F0F700FB172082B25719601EDFF86CC4A7
:1047D0001CF80000384482B2CF1701EB9777BF1066
:1047E000A1EB87071FB9032C01DA501E82B2072004
:1047F00092FBF0F700FB1720C0B2F0BD0146CA17CC
:1048000001EB92729210A1EB820292B9642091FBAB
:10481000F0F200FB121050B94FF4C87091FBF0F2A7
:1048200000FB121008B9012070470020FCE70120AE
:10483000FAE70020F8E770B5002600240025FEF70F
:10484000D3FB0646FE48B6FBF0F4FE480088A042C3
:104850003CD0FC490C8040F2B27510E02846FFF7CE
:10486000CDFF40B1B4F5B77F02D3A4F5B77404E02F
:10487000681C85B206E0A4F26D14681C85B2B4F51C
:10488000B67FEBD800BFF0488580002516E0EE49E2
:104890008888FFF7B3FF30B1012D04D11D2C01D35F
:1048A0001D3C09E00CE0E948405DA04203D8E74820
:1048B000405D241A00E003E0681C85B21C2CE6D29F
:1048C00000BF681CE0498871601CC871DC48B6FBF9
:1048D000F0F100FB11644FF46160B4FBF0F0DA49D1
:1048E00008704FF46160B4FBF0F100FB11403C2113
:1048F000B0FBF1F0D44948704FF46160B4FBF0F1C3
:1049000000FB11403C21B0FBF1F201FB1200CE494B
:1049100088700B46DA7999799888FFF735FFCA498C
:104920000872002070BD2DE9F05F06460F469046E4
:104930009946DDE90AAB002440F2B270864203DBFF
:1049400040F63300864202DD0120BDE8F09F40F2D0
:10495000B2750AE02846FFF751FF10B1BC48044485
:1049600001E0BC480444681C85B2B542F2DB781E05
:10497000C7B2002510E0B548405D40F2A32148438E
:1049800004EBC0143046FFF739FF18B1012D01D1F7
:10499000AB480444681C85B2BD42ECDBA8F10100C1
:1049A00040F2A321484304EBC014C9EB4910C0EB0B
:1049B000092004EB0014CAEB0A1004EB80045C44E9
:1049C00001214FF0C050FEF798FA0120FEF7BFF822
:1049D0002046FEF712FBFEF74CFBFFF72CFF0020F2
:1049E000B3E71CB5002401214FF0C050FEF785FA53
:1049F0000120FEF7ACF80420FDF799FD43F25001C9
:104A0000884242D0FDF75EFD0120FEF7D6F904E0B2
:104A1000601CC4B20A20FFF7E4FC4120FEF735F920
:104A20000028F5D0FA2C01DB01201CBD4FF480706A
:104A3000FEF7DFF90120FEF7E2F9FEF71AFBFEF7B9
:104A400021FB01210846FEF7AFFA01210220FEF703
:104A5000ABFAFEF70EFBFEF7B4FA47F6FF70FEF76F
:104A6000D9FAFEF706FB0B200090034602460146EA
:104A7000019040F2DB70FFF756FFFEF7ABFA43F20E
:104A800050010420FDF747FD0BE0FEF7FBFA012182
:104A90000846FEF789FA01210220FEF785FAFEF7A3
:104AA000E8FAFFF761FEFFF7C6FE0020BDE72DE93B
:104AB000FC4705460E4617469846DDE90A9A00244B
:104AC00001214FF0C050FEF718FA0120FEF73FF821
:104AD000FDF7F8FC0120FEF770F904E0601CC4B299
:104AE0000A20FFF77EFC4120FEF7CFF80028F5D022
:104AF000FA2C02DB0120BDE8FC874FF48070FEF742
:104B000078F90120FEF77BF9FEF7B3FAFEF7BAFA5F
:104B100001210846FEF748FA01210220FEF744FA77
:104B2000FEF7A7FAFEF74DFA47F6FF70FEF772FAA6
:104B3000FEF79FFA43463A4631462846CDE9009AA9
:104B4000FFF7F1FEFEF746FA43F250010420FDF7AD
:104B5000E2FCFFF709FEFFF76EFE0020CBE770B521
:104B6000002600240025FEF770FA06463448B6FBFE
:104B7000F0F439480088A0423CD037490C8040F21C
:104B8000B27510E02846FFF739FE40B1B4F5B77FA3
:104B900002D3A4F5B77404E0681C85B206E0A4F261
:104BA0006D14681C85B2B4F5B67FEBD800BF2B48F6
:104BB0008580002516E024498888FFF71FFE30B164
:104BC000012D04D11D2C01D31D3C09E00CE01F4830
:104BD000405DA04203D81D48405D241A00E003E078
:104BE000681C85B21C2CE6D200BF681C1B4988716A
:104BF000601CC8711248B6FBF0F100FB11644FF461
:104C00006160B4FBF0F0154908704FF46160B4FBCB
:104C1000F0F100FB11403C21B0FBF1F00F4948706E
:104C20004FF46160B4FBF0F100FB11403C21B0FB9C
:104C3000F1F201FB12000949887011E09872000836
:104C4000805101005600002070010020A47200086D
:104C50000085E2018033E101580000207A01002044
:104C6000002070BD2DE9F05F06460F46904699463C
:104C7000DDE90AAB002440F2B270864203DB40F665
:104C80003300864202DD0120BDE8F09F40F2B2759C
:104C90000AE02846FFF7B2FD10B14E48044401E097
:104CA0004D480444681C85B2B542F2DB781EC7B299
:104CB000002510E04948405D40F2A321484304EB41
:104CC000C0143046FFF79AFD18B1012D01D14448B8
:104CD0000444681C85B2BD42ECDBA8F1010040F23F
:104CE000A321484304EBC014C9EB4910C0EB0920D1
:104CF00004EB0014CAEB0A1004EB80045C440121AD
:104D00004FF0C050FEF7F9F80120FDF720FFFEF745
:104D1000B0F92046FEF78CF9FFF726FDFFF78BFD73
:104D2000FFF71DFF0020AFE71CB50120FEF7CFF90C
:104D300008B1FFF780FD0220FEF7C9F9002843D033
:104D40000220FEF7D4F92748007898B92548407822
:104D500080B9FBF7CCFA002023490978234ACDE932
:104D6000001091799088224A1378224A1278FFF72E
:104D700079FF27E0204800F087FE20A000F084FEA5
:104D80000B201F49087000F026F9164800781D49CD
:104D90000870144840781C49087001201B490870AD
:104DA0001B490870FBF7A3FA00200F4909780F4A46
:104DB000CDE90010917990880D4A13780D4A127848
:104DC000FFF750FFFFF7CBFE0520FEF790F9FEF747
:104DD00050F91CBD0085E2018033E101A472000896
:104DE000805101007A0100200E0000207001002097
:104DF0000D0000200C000020487D00080D0A000076
:104E0000210000200F0000201000002011000020D1
:104E10002300002003B500208DF807008DF8030063
:104E20008DF804008DF805008DF806000CBD0CB55A
:104E30005B4800788DF80000594840788DF80100F3
:104E4000574880788DF802005548C0788DF80300E7
:104E5000534800798DF80400514840798DF80500D9
:104E60004F4880798DF806004D48C0798DF80700CD
:104E7000DDE90001FFF7CEFF4A4800788DF8000019
:104E8000484840788DF80100464880788DF8020047
:104E90004448C0788DF80300424800798DF804003A
:104EA000404840798DF805003E4880798DF806002D
:104EB0003C48C0798DF80700DDE90001FFF7AAFF43
:104EC000394800788DF80000374840788DF80100A7
:104ED000354880788DF802003348C0788DF803009B
:104EE000314800798DF804002F4840798DF805008D
:104EF0002D4880798DF806002B48C0798DF8070081
:104F0000DDE90001FFF786FF284800788DF80000F2
:104F1000264840788DF80100244880788DF80200FA
:104F20002248C0788DF80300204800798DF80400ED
:104F30001E4840798DF805001C4880798DF80600E0
:104F40001A48C0798DF80700DDE90001FFF762FF1C
:104F50000CBD03B500219DF803209DF804301A43D1
:104F60009DF805301A439DF806301A430AB900200F
:104F700014E09DF803200AB14A1CD1B29DF8042028
:104F80000AB14A1CD1B29DF805200AB14A1CD1B21F
:104F90009DF806200AB14A1CD1B208460CBD00009B
:104FA000720000205A000020620000206A000020E9
:104FB00010B50446204600F0CEF910BD10B50446E9
:104FC00016480078012805D1204600F0C4F90020D9
:104FD0001249087010BD0120114908707047012066
:104FE00010490870704770B5044600250E480088C7
:104FF00000F4004080B10C4800780C490870002093
:105000000B490A4A12788854074908802146084803
:1050100000F080FF00B90125284670BD7A0000200D
:105020007B0000207C000020820000207D0000200A
:10503000500200207FB505460C4601210220FDF7F5
:105040005CFFADF80850ADF804400020ADF80A0050
:10505000ADF8060001A93848FEF728F901221146EB
:105060003548FEF79AFC1D208DF8000000208DF8D1
:10507000010003208DF8020001208DF8030068462E
:10508000FDF7B7F901212C48FEF76CFC7FBD10B588
:1050900001212948FEF72FFF00284CD00121264886
:1050A000FEF73AFF2548007801282DD124480078E2
:1050B00038B901202349087023480078401C224950
:1050C00008701F480078401C1D4908700846007889
:1050D000142801D1002008701B480078032806D14D
:1050E00000201649087018490870154908701748BB
:1050F0000078012808D10020104908701249087072
:105100000F4908701149087011480078012812D120
:105110001049087010480078401C0F490870084674
:105120000078B42807D100200870022009490870CF
:1051300000200749087010BD000400407B000020DB
:105140007E0000207A0000207F0000207C000020EC
:1051500023000020220000208000002010B504461B
:1051600044B100219448FEF791FE01219248FEF7D8
:10517000F9FB03E000219048FEF7F4FB10BD10B5E9
:1051800040F225518D48FFF78BF800B38B48FFF7AD
:1051900007F8C4B28A480088C82812DA0021864875
:1051A000FEF774FE8648008810B90120FFF7D6FF8D
:1051B000834801880088401C814A108081484454FB
:1051C00005E07F48008840F400407D49088010BD1C
:1051D0007FB505460C4601210420FDF78EFEADF893
:1051E0000450ADF800400020ADF80600ADF8020014
:1051F00069467148FEF75AF8012211466E48FEF7DB
:10520000CCFB1E208DF80C0001208DF80D00022033
:105210008DF80E0001208DF80F0003A8FDF7E9F8C6
:105220007FBD70B58CB006460C4615460121084678
:10523000FDF749FE3046FDF7A7F9019402951020CD
:105240000390002004900590802006900020079095
:10525000089009904FF480500A9000200B9001A90B
:105260003046FDF733FA0CB070BD10B586B0044679
:1052700001210420FDF734FE01214804FDF73DFE25
:105280004E48FEF74DFE0420ADF8100003208DF8C7
:10529000120018208DF8130004A94B48FDF7FEFA00
:1052A0000820ADF8100004208DF8130004A946482A
:1052B000FDF7F4FA00940020ADF80400ADF8060004
:1052C000ADF80800ADF80C000C20ADF80A006946F6
:1052D0003A48FEF768FE012280213848FEF720FF99
:1052E0003A4A3649091D3A48FFF79BFF01213348E6
:1052F000FEF7E5FE012240F225513048FEF7EBFEB5
:1053000026208DF8140002208DF8150003208DF85A
:10531000160001208DF8170005A8FDF76AF841F680
:105320001F416320FFF754FF002025490880FFF745
:1053300015FF06B010BD70B504460D46002120468D
:10534000FDF7EFF929462046FDF700FA0121204636
:10535000FDF7E7F970BD0FB438B505A800901B48FC
:10536000009A049900F07EFB0020009000BF1848CE
:10537000FDF7EEF90028FAD1144800F00DFDC4B293
:1053800021461348FFF7D7FF38BC5DF814FB10B572
:1053900001210948FEF7AFFD60B10948008840F4DB
:1053A00000400749088001210348FEF7B5FD0020B1
:1053B000FFF7D4FE10BD000000080040004400408C
:1053C00082000020500200200008014088010020D7
:1053D0008000024070B58EB00646342101A800F06E
:1053E00071FD304600F0D8FC84B240F6B830FEF7CC
:1053F000F8FFFD208DF8040000208DF80500A01CAA
:10540000C0B28DF8060001208DF807008DF8080065
:10541000224631460DF1090000F0DDFC00250DE0CB
:1054200001A8415D2948FEF7B7FE00BF402127488B
:10543000FEF720FF0128F9D1681C85B2A01D854226
:10544000EEDB0EB070BD70B598B00446342101A8F3
:1054500000F038FDA079303800906079A0F1300379
:105460002079A0F130021AA10EA800F019FB0EA8B5
:1054700000F092FC85B2FD208DF8040000208DF82C
:105480000500A81CC0B28DF8060001208DF80700A9
:105490008DF808002A460EA90DF1090000F09BFCCA
:1054A00000260DE001A8815D0848FEF775FE00BFEB
:1054B00040210648FEF7DEFE0128F9D1701C86B2B5
:1054C000681D8642EEDB18B070BD0000004C004045
:1054D000BDF1CCECD2AAB3D461D2A92564BFC5A3D7
:1054E000AC62D2A92564BFC5A3AC63D2A92564BFB1
:1054F000C500000010B586B0044601211020FDF75C
:10550000EFFC0121C804FDF7F8FC4FF48060ADF812
:10551000140003208DF8160018208DF8170005A937
:105520002748FDF7BBF94FF40060ADF814000420E4
:105530008DF8170005A92248FDF7B0F934208DF841
:10554000000003208DF801008DF8020001208DF885
:1055500003006846FCF74DFF01940020ADF80800F9
:10556000ADF80A00ADF80C00ADF810000C20ADF855
:105570000E0001A91348FEF716FD012240F2255145
:105580001048FEF7A8FD01210E48FEF798FD06B071
:1055900010BD10B540F225510A48FEF781FE68B1F2
:1055A0000848FEF7FDFDC4B24A2C02D1012006498D
:1055B0000880452C02D102200349088010BD00005C
:1055C00000100140004C00408400002010B540F263
:1055D00025517848FEF764FEF8B17648FEF7E0FD05
:1055E000C4B27548008800F40040B0B97248008821
:1055F000B0F5167F12DA00217048FEF747FC6E48BE
:10560000008818B901216D48FEF7ACF96A4908888D
:10561000411C694A11806A490C5405E066480088BB
:1056200040F400406449088010BD7FB505460C4633
:1056300001212020FDF761FCADF80450ADF80040D9
:105640000020ADF80600ADF8020069465B48FDF7A2
:105650002DFE012211465948FEF79FF901215748B6
:10566000FEF780F937208DF80C0000208DF80D0032
:1056700002208DF80E0001208DF80F0003A8FCF722
:10568000B8FE7FBD10B586B0044601210820FDF7A5
:1056900027FC01218804FDF730FC4648FEF740FC5A
:1056A0004FF48060ADF8100003208DF81200182030
:1056B0008DF8130004A94348FDF7F0F84FF400609B
:1056C000ADF8100004208DF8130004A93D48FDF743
:1056D000E5F800940020ADF80400ADF80600ADF840
:1056E0000800ADF80C000C20ADF80A0069463148FE
:1056F000FEF759FC01212F48FEF7E1FC012240F2A0
:1057000025512C48FEF7E7FC27208DF814000220D5
:105710008DF8150003208DF8160001208DF8170074
:1057200005A8FCF766FE41F61F416320FFF77DFFE9
:1057300000202149088000212048FEF713F906B017
:1057400010BD0FB438B505A800901F48009A049901
:1057500000F088F9002000901B4800F01DFB85B286
:1057600000240DE000BF40211248FEF783FD002811
:10577000F9D01548015D0F48FEF70EFD601C84B29C
:10578000AC42EFDB38BC5DF814FB10B501210B48CF
:10579000FEF7B1FB68B10848008840F400400649B4
:1057A000088001210548FEF7B7FB00210348FEF7FA
:1057B000D9F810BD004800408600002000140040C9
:1057C00018030020000C01407005002070B504464D
:1057D00000257948008800F4004058B1002076493F
:1057E0000988C1F30E01754A50542146104600F055
:1057F00095FA0546284670BD2DE9F04104460E464F
:105800001546002700206C490880FF2C0AD800BFED
:105810006B48008800F040000028F9D06849091D55
:105820000C8003E0214667A0FFF78BFFC6B1BDB136
:105830000FE00A20FEF7D5FD5F48008800F4004025
:1058400038B13046FFF7C2FF00B106E000205A49E8
:105850000880681E80B20500EBD100BF05B90127A2
:105860003846BDE8F0810146302905DB392903DCE3
:10587000A1F13000C0B27047412905DB462903DCA5
:10588000A1F13700C0B2F6E7612905DB662903DC28
:10589000A1F15700C0B2EEE70020ECE7014609296C
:1058A00003DC01F13000C0B270470A2905DB0F2983
:1058B00003DC01F13700C0B2F6E73020F4E700B5B1
:1058C00003460A4612E00020FFF7E8FF02F8010B4A
:1058D0000020FFF7E3FF02F8010B0320FFF7DEFFD4
:1058E00002F8010B187802F8010B5B1C18780028ED
:1058F000E9D1107000BD30B5B3B0044650211FA8E7
:1059000000F0E0FA2C2231A114A800F0A9FA1FAD92
:10591000C82239A139A0FFF76FFF10B1012033B0C1
:1059200030BDC82234A138A0FFF766FF08B10220BD
:10593000F5E7C82230A139A0FFF75EFF08B10320C8
:10594000EDE71FA92046FFF7BAFF2A4637A16846B0
:1059500000F0A6F8C82239A16846FFF74DFF80B9CC
:1059600014A937A0FFF7EDFE4FF47A7235A11A2083
:10597000FFF742FF28B935480068C0433449C1F8F1
:10598000880100200C4908800A20FEF72AFD00202B
:10599000C5E710B503E04FF44870FEF722FD64221E
:1059A00015A12CA0FFF728FF0028F4D1C82212A1CE
:1059B00029A0FFF721FF10BD86000020180300205A
:1059C0000048004025730D0A0000000035334431C3
:1059D0003735314637443237363032353630433555
:1059E000353142353937303038393831363535315F
:1059F00036334634000000004F4B000041542B4327
:105A00004D47463D3100000041542B43534D503D1E
:105A100031372C3136372C322C32350041542B4360
:105A20005343533D225543533222000041542B43EC
:105A30004D47533D22257322000000003E00000028
:105A4000257300002B434D47533A00008801214243
:105A50000000214241540000415445300000000044
:105A6000704700001CB50C46064B7B44694600900D
:105A7000204600F03EFB04460020694600F04CFB47
:105A800020461CBDAB0600000FB4044910B503AAA4
:105A9000029800F05DFB10BC5DF814FB5000002084
:105AA0000FB41CB5084B06AA7B44694600900598C4
:105AB00000F01FFB04460020694600F02DFB204645
:105AC0001CBC5DF814FB00006D06000070B50C46B0
:105AD0000546012A05D02878800600D5EA6900230A
